:020000040800F2
:100000006807002089010008D90300084D03000893
:10001000D503000831020008270B0008000000008B
:10002000000000000000000000000000BD05000806
:1000300035020008000000006104000825070008E0
:100040009F0100089F0100089F0100089F01000810
:100050009F0100089F0100089F0100089F01000800
:100060009F0100089F0100089F0100089F010008F0
:100070009F0100089F0100089F0100089F010008E0
:100080009F0100089F0100089F0100089F010008D0
:100090009F0100089F0100089F0100089F010008C0
:1000A0009F0100089F0100089F0100089F010008B0
:1000B0009F0100089F0100089F0100089F010008A0
:1000C0009F0100089F0100089F0100089F01000890
:1000D0009F010008950800081D0900089F010008FD
:1000E0009F0100089F0100089F01000800F002F82E
:1000F00000F03AF80AA090E8000C82448344AAF188
:100100000107DA4501D100F02FF8AFF2090EBAE885
:100110000F0013F0010F18BFFB1A43F0010318473B
:10012000A80F0000C80F0000103A24BF78C878C19B
:10013000FAD8520724BF30C830C144BF04680C60ED
:10014000704700000023002400250026103A28BF35
:1001500078C1FBD8520728BF30C148BF0B60704739
:100160001FB51FBD10B510BD00F02FF81146FFF7E9
:10017000F7FF00F07DFD00F04DF803B4FFF7F2FF4C
:1001800003BC00F0D2FC000008480047FEE7FEE791
:10019000FEE7FEE7FEE7FEE7FEE7FEE7FEE7FEE737
:1001A00003480449044A054B70470000ED0000086D
:1001B0006801002068070020680300206803002011
:1001C00070477047704770477047754600F02CF8CD
:1001D000AE4605006946534620F00700854618B034
:1001E00020B5FFF7DDFFBDE820404FF000064FF0DF
:1001F00000074FF000084FF0000B21F00701AC465C
:10020000ACE8C009ACE8C009ACE8C009ACE8C0097A
:100210008D46704710B50446AFF300802046BDE818
:100220001040FFF7AABF00000048704704010020FB
:1002300000BFFEE770472DE9F04102460025002689
:10024000002000230024002791F803C00CF00F05C4
:1002500091F803C00CF0100CBCF1000F03D091F822
:1002600002C04CEA050591F800C0BCF1000F31D086
:10027000146800202BE04FF0010C0CFA00F3B1F8E9
:1002800000C00CEA03069E4220D183004FF00F0C01
:100290000CFA03F7BC4305FA03FC4CEA040491F89A
:1002A00003C0BCF1280F06D14FF0010C0CFA00FC82
:1002B000C2F814C00AE091F803C0BCF1480F05D1A0
:1002C0004FF0010C0CFA00FCC2F810C0401C0828CA
:1002D000D1D31460B1F800C0BCF1FF0F34DD546815
:1002E00000202EE000F1080C4FF0010808FA0CF392
:1002F000B1F800C00CEA03069E4221D183004FF002
:100300000F0C0CFA03F7BC4305FA03FC4CEA040497
:1003100091F803C0BCF1280F05D100F1080C08FAD0
:100320000CF8C2F8148091F803C0BCF1480F07D153
:1003300000F1080C4FF0010808FA0CF8C2F8108020
:10034000401C0828CED35460BDE8F08100BFFEE712
:1003500010B519210A4800F048FA1921094800F09F
:1003600044FA00200849086001200849C1F8A001AA
:1003700000200749086001200449C1F8A40110BD0C
:1003800000040040000800409C812142008021427E
:100390009001214210B50021094800F026FA4621BB
:1003A000084800F022FA0020074908600749C1F810
:1003B000A0010749086001200449C1F8A40110BD4B
:1003C00000040040000800409C812142008021423E
:1003D0009001214200BFFEE77047000070B5002188
:1003E00000230F22C47804B3154C246804F4E0649D
:1003F000C4F5E064210AC1F10403CA40447804FA58
:1004000003F184781440214309010E4C0678A1556C
:10041000047804F01F050124AC4005786D11AD008F
:1004200005F1E025C5F8004109E0047804F01F0556
:100430000124AC40044D0678761145F8264070BD85
:100440000CED00E000E400E080E100E0024901433F
:10045000024A1160704700000000FA050CED00E050
:100460007047000029B1064AD2690243044BDA61A1
:1004700004E0034AD2698243014BDA61704700000D
:100480000010024029B1064A92690243044B9A6166
:1004900004E0034A92698243014B9A61704700006D
:1004A0000010024030B500210022002400232D4D11
:1004B0006D6805F00C0121B1042905D0082923D16C
:1004C00005E0294D056022E0274D05601FE0254D20
:1004D0006D6805F47012234D6D6805F480340225B3
:1004E00005EB92421CB9214D554305600BE01D4DB3
:1004F0006D6805F400351DB11C4D5543056002E0E3
:10050000194D5543056002E0174D056000BF00BF5F
:10051000144D6D6805F0F0010909154D6B5C056817
:10052000DD4045600F4D6D6805F4E061090A104D2E
:100530006B5C4568DD4085600A4D6D6805F460516F
:10054000C90A0B4D6B5C4568DD40C560054D6D68A3
:1005500005F44041890B074D6B5CC568B5FBF3F5AD
:10056000056130BD0010024000127A0000093D0014
:10057000260000203600002010B546210A4800F071
:1005800034F90021094800F030F9002008490860DA
:1005900001200849C1F8A001002007490860054969
:1005A000C1F8A40110BD0000000400400008004094
:1005B0009C8121420080214290012142704700002D
:1005C00010B52D210A4800F010F92D21094800F03E
:1005D0000CF901200849086000200849C1F8A00171
:1005E0000749086001200549C1F8A40110BD0000B9
:1005F00000040040000800409C812142008021420C
:100600009001214210B532210A4800F0EEF82D2168
:10061000094800F0EAF8002008490860012008496C
:10062000C1F8A0010749086000200549C1F8A401EC
:1006300010BD000000040040000800409C812142E1
:10064000008021429001214200B587B00121480479
:10065000FFF708FF01210420FFF714FF18208DF891
:100660001B000420ADF8180003208DF81A0006A91D
:100670002048FFF7E0FD48208DF81B000820ADF86A
:10068000180003208DF81A0006A91A48FFF7D3FDB9
:100690004FF4165002900020ADF814000C20ADF875
:1006A00012000020ADF81000ADF80E00ADF80C00FF
:1006B00002A9114800F0C6F9012240F225510E4866
:1006C00000F09AF94FF4A060FFF7C0FE26208DF8E5
:1006D000040001208DF807008DF805008DF8060054
:1006E00001A8FFF77BFE0121034800F042F907B0A3
:1006F00000BD00000008014000440040042808D16B
:100700004FF0E021096941F004014FF0E02211614E
:1007100007E04FF0E021096921F004014FF0E022E9
:1007200011617047704721B1028842F001020280D6
:1007300004E002884FF6FE731A4002807047000002
:1007400070B5002400220023058C4FF6FE7635405C
:100750000584028C8388048B4FF68F752C40B51E60
:100760002C400D882C43751E2A400D892A434D8844
:100770002A43144DA8420BD0134DA84208D0134D64
:10078000A84205D0124DA84202D0124DA84213D162
:100790004FF6F7752A404D892A434FF6FB752A40DC
:1007A0008D882A434FF6FF652B404FF6FF552B40AF
:1007B0008D892B43CD892B4383800483CD88858607
:1007C000028470BD002C0140003401400040014013
:1007D00000440140004801400A460021018B4FF6C9
:1007E000F7731940114301837047818670470000F9
:1007F000002202881D4B98420ED01D4B98420BD010
:10080000B0F1804F08D01B4B984205D01A4B98424C
:1008100002D01A4B984204D14FF68F731A404B887E
:100820001A43174B984207D0164B984204D04FF604
:10083000FF431A40CB881A4302808B8883850B883C
:1008400003850A4B98420BD0094B984208D00E4BB7
:10085000984205D00D4B984202D00D4B984201D1E1
:100860000B7A03860123838270470000002C01402D
:10087000003401400004004000080040000C00402B
:1008800000100040001400400040014000440140BE
:100890000048014010B540F225511D4800F082F893
:1008A00010B31B4800F03AF9C4B21A48008800F4AB
:1008B0000040C8B91748008800F4804060B10A2C95
:1008C00003D000201349088020E01248008840F43B
:1008D00000401049088019E00D2C06D10D48008811
:1008E00040F480400B49088010E00A480088C0F3BB
:1008F0000D0009490C5407480088401C0549088030
:1009000008460088C72801DD0020088010BD0000CF
:1009100000380140240000203C00002010B540F2C7
:100920002551094800F031F801280CD1064800F0A3
:10093000F5F80649087001200549087040F2255174
:10094000014800F007F810BD0044004000000020FE
:100950000100002010B50022002340F66A14A142D5
:1009600000D100BF0A1201249440A3B2DC430480EA
:1009700010BD21B1828942F40052828104E0828953
:100980004DF6FF731A408281704702460020B1F590
:10099000007F00D100BF13880B400BB1012000E0A5
:1009A0000020704770B50246002400230025002077
:1009B00040F66A16B14200D100BFC1F3421501F002
:1009C0001F03012606FA03F3012D02D19689334055
:1009D00006E0022D02D1168A334001E0968A3340A8
:1009E0000C12012606FA04F41688344013B10CB137
:1009F000012000E0002070BDF0B503460024002671
:100A00000025002040F66A17B94200D100BF184601
:100A1000C1F3421401F01F06012707FA06F5012C65
:100A200001D10C3004E0022C01D1103000E0143070
:100A30001AB107682F43076002E00768AF430760F9
:100A4000F0BD00002DE9F04786B005460E460024B3
:100A5000A24600BFA1460027B08900B100BF2F46C3
:100A60002C8A4CF6FF700440F08804432C82AC8939
:100A70004EF6F3100440B088318908437189084369
:100A80000443AC81AC8A4FF6FF400440B089044374
:100A9000AC8201A8FFF706FD1F48874202D1DDF8AE
:100AA00010A001E0DDF80CA0A88900F4004040B1DE
:100AB0000AEBCA0000EB0A1031684900B0FBF1F8FC
:100AC00007E00AEBCA0000EB0A1031688900B0FBAE
:100AD000F1F86420B8FBF0F004012009642101FB67
:100AE0001089A88900F4004040B1322000EBC90011
:100AF000B0FBF1F000F00700044308E0322000EB07
:100B000009106421B0FBF1F000F00F0004432C81C8
:100B100006B0BDE8F0870000003801400146888833
:100B2000C0F30800704700BFFEE700BF7047000039
:100B300010B52B210A48FFF758FE2B210948FFF773
:100B400054FE01200849086000200849C1F8A001AE
:100B500001200749086000200449C1F8A40110BD24
:100B600000040040000800409C8121420080214296
:100B70009001214208B501210420FFF783FC0120E8
:100B8000ADF8000003208DF8020048208DF8030026
:100B900069460248FFF74FFB08BD0000000801400E
:100BA00010B56FF00400FFF7A9FD0A4800680A4974
:100BB000B0FBF1F0094908700846007800EB4001ED
:100BC000C1EBC0104FF6FF7101EAC0000449088074
:100BD00010BD00000800002000127A001C00002058
:100BE0001E0000200146114A12884A434FF0E023BC
:100BF0005A6100229A611A46126942F001021A6192
:100C000000BF4FF0E022106900F001021AB100F4B9
:100C10008032002AF5D04FF0E022126922F0010262
:100C20004FF0E0231A6100229A6170471E000020F5
:100C300010B500210948FFF7D8FD2D210848FFF71E
:100C4000D4FD0020074908600749C1F8A001074901
:100C5000086001200449C1F8A40110BD000400404F
:100C6000000800409C8121420080214290012142E5
:100C700000F028F9FFF7E8FC00F002FA00F046F96E
:100C8000FFF778FFFFF78CFFFFF762FB11E1894860
:100C90000078472801D100F0BFF98648007848283D
:100CA00001D1FFF7C5FF834800784A2801D100F041
:100CB00091F9804800784B2801D1FFF739FF7D4832
:100CC0000078492801D100F0C9F97A480078412814
:100CD00001D1FFF775FC77480078422801D1FFF772
:100CE00091FC7548006828B97448006810B9002064
:100CF000734908607048006828B970480068012886
:100D000001D16F4908606C480068012805D16B4823
:100D1000006810B902206A4908606748001D006831
:100D200060B96548006848B96448006830B96348EC
:100D3000001D006810B90320614908605E48001D6D
:100D40000068012803D05C480068012809D15B488D
:100D5000006830B95948001D006810B9042058498E
:100D600008605548001D006868B95348006850B9CC
:100D70005248006838B95148001D0068012802D166
:100D800005204F4908604C48001D006801280DD11E
:100D90004948006850B94948006838B94748001DBB
:100DA0000068012802D10620454908604248001D1C
:100DB000006870B94048006858B940480068012888
:100DC00007D13E48001D0068012802D107203C4998
:100DD00008603948001D006801280DD136480068B8
:100DE000012809D13548006830B93448001D006831
:100DF00010B90820324908602F48001D00680128FA
:100E00000FD12D48006801280BD12C48006801281B
:100E100007D12A48001D0068012802D1092028496D
:100E20000860274800680A2839D2DFE800F0050882
:100E30000B0E111417222F3200F0EEF82FE000F005
:100E4000C9F82CE0FFF7F4FE29E000F0E5F826E011
:100E5000FFF7A0FA23E000F0BDF820E0FFF7D2FB97
:100E60001E20FFF7BFFEFFF763FE1420FFF7BAFE58
:100E700015E0FFF7C7FB1E20FFF7B4FEFFF758FE93
:100E80001920FFF7AFFEFFF777FB08E0FFF782FAC4
:100E900005E000F0C1F80F20FFF7A4FE00BF00BF7F
:100EA00006481C38006820B900F094F82D20FFF7A0
:100EB00099FEECE600000020008121421C01214245
:100EC0000400002008B501210C20FFF7DBFA4FF4E5
:100ED0006070ADF8000010208DF8030003208DF83D
:100EE000020069460748FFF7A6F91020ADF8000098
:100EF0008DF8030003208DF8020069460248FFF7D1
:100F00009AF908BD000C01400008014000B589B005
:100F10004020ADF8040018208DF8070003208DF85C
:100F2000060001A92748FFF786F94020ADF8040024
:100F300018208DF8070003208DF8060001A922482B
:100F4000FFF779F901210620FFF78CFA01210C2027
:100F5000FFF798FA6320ADF81C004720ADF81800A1
:100F60000020ADF81E00ADF81A0006A91748FFF7DB
:100F70003FFC06A91648FFF73BFC6020ADF80800CF
:100F80000120ADF80A000020ADF81000ADF80E0009
:100F900002A90F48FFF7D4FB02A90C48FFF7D0FBCA
:100FA00008210B48FFF718FC08210848FFF714FC3C
:100FB00001210648FFF7B7FB01210548FFF7B3FB06
:100FC00009B000BD00080140000C014000040040D1
:100FD0000008004010B52D210A48FFF706FC00214B
:100FE0000948FFF702FC0020084908600120084971
:100FF000C1F8A0010020074908600549C1F8A40113
:1010000010BD000000040040000800409C81214207
:10101000008021429001214210B528210A48FFF7A3
:10102000E4FB28210948FFF7E0FB0020084908609D
:1010300001200849C1F8A0010020074908600120EB
:101040000449C1F8A40110BD00040040000800409C
:101050009C812142008021429001214200200549CB
:1010600008600549C1F8A001044908600249C1F8B7
:10107000A40170479C8121420080214290012142BD
:1010800008B501210C20FFF7FDF90320ADF80000A1
:101090008DF8020048208DF8030069460848FFF7E4
:1010A000CAF840F20110ADF8000003208DF80200EC
:1010B00048208DF8030069460248FFF7BCF808BDD8
:1010C000000C014000080140E8100008000000206A
:1010D0003C00000028010008241100083C0000200A
:1010E0002C07000044010008000000000000000080
:1010F00000A24A04000000000000000001020304F6
:1011000006070809000000000000000000000000C1
:101110000000010203040102030406070809020497
:0411200006080000BD
:040000050800018965
:00000001FF
